:100000000C94AA000C94CB000C94CB000C945309D4
:100010000C94CB000C94CB000C94CB000C94CB0034
:100020000C94CB000C94CB000C94CB000C94CB0024
:100030000C94CB000C94CB000C94CB000C94CB0014
:100040000C94CB000C947E090C94CB000C94CB0048
:100050000C94CB000C94FC080C94CB000C94CB00BB
:100060000C94CB000C94AC080C94CB000C94CB00FB
:100070000C94CB000C94CB000C94CB000C94CB00D4
:100080000C94CB000C94CB000C94CB000C94CB00C4
:100090000C945E080C94CB000C94CB000C94CB0019
:1000A0000C94CB000C94CB000C94CB000C94CB00A4
:1000B0000C94CB000C94CB000C94CB000C94440912
:1000C0000C94CB000C94CB000C94CB000C94100837
:1000D0000C94CB000C94CB000C94C2070C94CB0076
:1000E0000C94CB000C9479100C94460F0C94F601F0
:1000F0000C94C00F0C94C00E0C940A0E0C94D90EE4
:100100000C9430020C9419010C941E100C94E40110
:100110000C94EC020C94940F0C94C40D0C946A0390
:100120000C9456120C94300F0C9444100C94A80D9F
:100130000C94E8020C9485030C942E010C94F002AC
:100140000C94DC010C94EA106364696E6F70737533
:1001500078585B0011241FBECFEFD1E2DEBFCDBFC8
:1001600000E00CBF25E1ACE9B2E101C01D92AF3A5D
:10017000B207E1F712E1A0E0B2E0E4EAFBE300E05D
:100180000BBF02C007900D92AC39B107D9F70E949E
:100190009C0B0C94D01D0C940000DC01AB56BA4EA5
:1001A0002C91211128C020919415211117C027E806
:1001B00020937A0020917B00286020937B0020917F
:1001C0007D0041E050E0082E01C0440F0A94EAF798
:1001D000242B20937D0021E020939415880F991FF4
:1001E000FC01E658FD4F81E090E0918380838C9381
:1001F00090E080E008958FEF9FEF0895FC01EE0FEF
:10020000FF1FE658FD4F90819295990F990F907CB2
:10021000892B80937C0080917A00806480937A009F
:1002200080917A0086FDFCCF8091780090917900D2
:1002300008959091FB14E92FF0E0E450FB4E808389
:100240009F5F9093FB140895ECEFF4E1119285E128
:10025000EC37F807D9F71092FB1408952091821516
:100260003091831521303105B9F040F0223031054D
:10027000D9F12330310509F464C008958B3209F0B7
:100280009AC081E090E090938315809382159093BB
:1002900081158093801508952091801530918115E6
:1002A000F901ED53FD4F4081042E000C550B8417CE
:1002B000150689F42430310539F482E090E09093FA
:1002C00083158093821508952F5F3F4F30938115DA
:1002D0002093801508951092831510928215109224
:1002E000811510928015089590ED980F9A3098F42A
:1002F00040917E1550917F159AE0949F9001959FB3
:10030000300D11248053990B820F931F90937F150A
:1003100080937E1508958A3359F483E090E090939A
:1003200083158093821510927D1510927C15089587
:10033000109283151092821510927F1510927E15DF
:10034000089540917C1550917D1520917E15309136
:100350007F154217530774F4E091A115F091A2158F
:10036000BA016F5F7F4F70937D1560937C15E40F2A
:10037000F51F808380917C1590917D152817390792
:10038000D1F4E091A115F091A215E20FF31F1082B4
:10039000109283151092821510927F1510927E157F
:1003A00010927D1510927C150E942401E0919F15FA
:1003B000F091A01519940895E0919D15F0919E1566
:1003C000309709F0199408958A3039F49091C0005B
:1003D00095FFFCCF9DE09093C6009091C00095FFE3
:1003E000FCCF8093C60090E080E0089581E0809388
:1003F000FA1408959FEF980F9530D0F4082E000C52
:10040000990B019727E0289FF001299FF00D1124F7
:10041000E952FB4E118210821382128215821482DD
:1004200016828091D61481508093D61480E008956E
:100430008FEF089580919C15882379F087E090E0F4
:100440000E94FE00811524E0920748F42FEF33E06C
:10045000A901481B590BCA0108958FEF9FEF08951A
:10046000EDECF4E191E0282F30E04191042E000CF6
:10047000550B4217530789F485B1933051F09430EE
:1004800051F0923019F0805885B9089590E4892789
:10049000FBCF90E2FCCF90E1FACF9F5F953029F738
:1004A00008958330D1F0843011F1823061F0809171
:1004B000CD14882321F00E94FA011092CD142F9AB6
:1004C00090E080E008958091CE14882321F00E946E
:1004D000FA011092CE142E9AF3CF8091CF14882374
:1004E00021F00E94FA011092CF142D9AE9CF809149
:1004F000D014882321F00E94FA011092D0142C9A73
:10050000DFCF0F931F93CF93DF9330E097FF04C0AB
:1005100091958195910931E021E120937902209311
:1005200078022093770220937602332331F020E182
:100530008A3091055CF420937802009761F4109260
:100540007902DF91CF911F910F9108958436910523
:10055000BCF42093770220E003E010E0CAE0D0E092
:10056000F801E21BF10927FDF395EA58FD4FBE01A2
:100570000E94BD158083CB012F5F009789F7E1CFE3
:1005800020937602E8CF27E030E0482F880F550B04
:10059000CA01022E02C0959587950A94E2F780FF62
:1005A00013C0809102018062809302019091020148
:1005B000906190930201909102019F7E90930201BD
:1005C0002150310928F70895809102018F7DECCFE9
:1005D00081E080931513089581E08093C3140895FA
:1005E00080914414882331F04A9903C081E00C942F
:1005F00051022F980895CF93DF93EC01892B71F16D
:100600008A85811108C091E04E815F8128853985F6
:100610004217530709F090E090FD20C0CB014C81B8
:100620005D8168857985469F9001479F300D569F73
:10063000300D112468817981620F731F0E941D178C
:100640001A868885998501966A817B810E94A91501
:100650009987888781E0DF91CF91089580E0FBCF73
:10066000CF93DF930097A1F1EC014C815D812E8146
:100670003F81429FC001439F900D529F900D1124D6
:1006800028813981820F931F0E941D178A852A8134
:100690003B81882341F0888599850196B9010E94A4
:1006A000A915998788878E819F810196B9010E943B
:1006B000A9159C019F838E8391E048855985421737
:1006C000530709F090E09A8781E0DF91CF91089578
:1006D00080E0FBCFCF93DF931F92CDB7DEB7BE0193
:1006E0006F5F7F4F80918615909187150E94FB0266
:1006F0008823A9F389818D3011F48AE08983898167
:1007000090E00F90DF91CF91089585B190E4892713
:1007100085B908958F929F92AF92BF92EF92FF9208
:100720000F931F93CF93DF93CDB7DEB7C058D10996
:100730000FB6F894DEBF0FBECDBF8B01E0909D15C4
:10074000F0909E1529E131E030939E1520939D1580
:10075000BC01CE0101960E9445176BEC72E0CE0100
:1007600001960E942617FC01919191113EC09801BB
:10077000A4E6B0E00E949A154B015C0110E000E095
:10078000C801B0E0A0E088159905AA05BB0570F482
:100790008FE39CE90197F1F700C0000069EC72E07B
:1007A0008CEF94E10E946A17892B31F18091FB1440
:1007B000811125C003E010E00E942401F0929E15F3
:1007C000E0929D15C801C058DF4F0FB6F894DEBF08
:1007D0000FBECDBFDF91CF911F910F91FF90EF9092
:1007E000BF90AF909F908F9008958091D00085FF2B
:1007F000FCCF9093D600B8CF0F5F1F4FC1CF6EECE8
:1008000072E08CEF94E10E946A1710E000E0892BFF
:1008100099F661ED72E08CEF94E10E946A1702E0B4
:1008200010E0892B49F667ED72E08CEF94E10E94AD
:100830006A1704E010E0892B09F4BECF01E010E054
:10084000BBCFEF92FF920F931F93CF93DF93CDB760
:10085000DEB7C758D1090FB6F894DEBF0FBECDBFC3
:100860007C01162F072F3093A2152093A1155093CA
:10087000A01540939F156CED72E0CE0101960E9489
:100880004517B701CE0101960E94261760EF72E06E
:10089000CE0101960E9426170F931F938EE890E1D8
:1008A0009F938F938E010F571F4F1F930F930E949B
:1008B0004418B801CE0101960E94261764E170E049
:1008C000CE0101960E948A038C010F900F900F9029
:1008D0000F900F900F90892B41F48EE291E090934E
:1008E0009E1580939D150E942401C801C957DF4FB2
:1008F0000FB6F894DEBF0FBECDBFDF91CF911F9131
:100900000F91FF90EF900895DF92EF92FF920F9377
:100910001F93CF93DF93CDB7DEB7C758D1090FB67A
:10092000F894DEBF0FBECDBFE82ED92EF62E172FBE
:1009300063EF72E0CE0101960E9445171F93FF926C
:100940008EE890E19F938F938E010F571F4F1F9357
:100950000F930E944418B801CE0101960E942617F9
:1009600064E170E0CE0101960E948A030F900F901F
:100970000F900F900F900F903E2DEE2DFD2D0097B4
:10098000B1F0C957DF4F0FB6F894DEBF0FBECDBF31
:10099000DF91CF911F910F91FF90EF90DF9008951D
:1009A00021914091D00045FFFCCF2093D6002E2FFF
:1009B000231B2F15A8F3E5CF61E070E08FEF92E0E5
:1009C0000C948A03EF92FF920F931F93CF93DF93C0
:1009D000CDB7DEB7C058D1090FB6F894DEBF0FBE51
:1009E000CDBF7C018B0164E073E0CE0101960E94D3
:1009F0004517B701CE0101960E9426176CEE72E0F2
:100A0000CE0101960E942617B801CE0101960E94E0
:100A1000261767E67FE0CE0101960E94261764E163
:100A200070E0CE0101960E948A03C058DF4F0FB6D6
:100A3000F894DEBF0FBECDBFDF91CF911F910F9114
:100A4000FF90EF90089580910B01806880930B01D7
:100A500085E38A95F1F7000080910B018F778093F1
:100A60000B011092D51480912101836080932101A4
:100A70008091D514811104C08091090186FFF8CFBF
:100A8000109225011092240180E020E030E0A901BD
:100A90009091D5149923A1F08091D5148823F1F079
:100AA0008FEF9FEF9093D4148093D3148091210102
:100AB0008C7F809321018091D3149091D414089558
:100AC0008111EACF9091090196FDE2CF2091240196
:100AD0003091250150E040E081E0DACFA7E5B1E0B8
:100AE0000E948F1524EF31E040E050E00E946D1528
:100AF0003093D4142093D314D9CFAF92BF92CF9216
:100B0000DF92EF92FF920F931F93CF93DF9300D06A
:100B10001F921F92CDB7DEB75C011D821C821B8223
:100B20001A82198280910A01826080930A01809161
:100B30000B018D7F80930B018FEF90EEA0E0815031
:100B40009040A040E1F700C00000EFB6F89480911B
:100B50000B01826080930B01B5EDBA95F1F70000AF
:100B600080910A018D7F80930A0180910B01826040
:100B700080930B01E0E0F0E0FF24F39480E007C0F5
:100B80008F5F95E09A95F1F700008F3F29F09091E3
:100B9000090192709F15A1F3909109019270F92EAD
:100BA0008F3FB9F0E43090F0E0FD10C00F2F0695B4
:100BB00006950695A1E0B0E0AC0FBD1FA00FB11DDA
:100BC0009C91990F8B31A0F59C93FF5FEF5FE5350A
:100BD000A9F6EFBEF83270F109811A819B818C81F0
:100BE000FD80C02EC10EDD24DD1CF601E90FF11DD4
:100BF000E80FF11DFF27FE161F06E1F4D5010C9347
:100C0000FB011083DA019C93F901808390E080E07E
:100C10000F900F900F900F900F90DF91CF911F9139
:100C20000F91FF90EF90DF90CF90BF90AF9008951D
:100C30009160CACFD9011C92FA011082DB011C928B
:100C4000F501108281E090E0E3CF6D9A75982FE76F
:100C500088E391E0215080409040E1F700C000001F
:100C6000759A0895AF92BF92CF92DF92EF92FF9262
:100C70000F931F93CF93DF93CDB7DEB7C054D10945
:100C80000FB6F894DEBF0FBECDBF1092C61480E140
:100C900094E00E94C81761E070E08FE093E00E944A
:100CA0008A037C0181E294E0E114F10409F090C030
:100CB0000E94DC04C0909D15D0909E1589E191E0C2
:100CC00090939E1580939D15E5E3F4E08191811149
:100CD0002FC004EF11E08FE39CE90197F1F700C00A
:100CE000000069EC72E08CEF94E10E946A17892B96
:100CF00019F40150110979F78091FB14882309F444
:100D00007CC06EEC72E08CEF94E10E946A17892B34
:100D1000B1F461ED72E08CEF94E10E946A1722E079
:100D2000E22EF12C892B71F584E0E82EF12C2AC0FB
:100D30009091D00095FFFCCF8093D600C7CF60E4A0
:100D400074E08CEF94E10E946A170097D9F05C017F
:100D500028E0A20EB11C62E270E0C5010E943117CA
:100D6000009781F08C010A191B090231110554F416
:100D7000A801B50184E692E00E945B17F801EC59E6
:100D8000FD4F10820E942401D0929E15C0929D15A5
:100D9000EF28B9F584E692E09F938F9389E494E07D
:100DA0009F938F930E94B4170F900F900F900F9006
:100DB00065E070E089E794E00E948A0361E070E0FA
:100DC0008DE293E00E948A03892B01F182E894E08E
:100DD0000E94C81780E0C05CDF4F0FB6F894DEBFFA
:100DE0000FBECDBFDF91CF911F910F91FF90EF907C
:100DF000DF90CF90BF90AF90089593E0E92EF12C53
:100E0000C1CF89E594E00E94C817D2CF8FEF99E651
:100E100028E1815090402040E1F700C0000087E9C0
:100E200094E00E94C81767EA74E080EB94E00E94A7
:100E3000E204892B19F086EB94E0CACF8FEF97EA92
:100E400021E6815090402040E1F700C0000087E09B
:100E50008F938BE58F9388EC94E09F938F9384ED31
:100E600094E09F938F930E94B4171092451425E449
:100E700034E14CEE52E06BE577E088EC94E00E94C0
:100E800021040F900F900F900F900F900F90892BCF
:100E900019F08DEE94E09CCF8FEF99E628E1815018
:100EA00090402040E1F700C0000080E189838BE1A1
:100EB0008A831B8284E08C839DE49D8391E59E83DD
:100EC00094E59F839887898782E08A871B868CE3D5
:100ED0008C871D868FE08E87E4E0F5E0DE011F96AB
:100EE00001900D928A95E1F784E195E00E94C81780
:100EF0006DE170E0CE0101960E9484048FEF99E6C7
:100F000028E1815090402040E1F700C0000082E8D5
:100F1000898386E18A831B8211E01C831D8281E123
:100F20008E832CE235E0F901DE01179601900D92D7
:100F30008A95E1F7188E3F932F938EE395E09F9368
:100F40008F930E94B41768E170E0CE0101960E9471
:100F500084048FEF95EA2EE0815090402040E1F725
:100F600000C000008FE595E00E94C8171093C614DA
:100F70001092C5141092C4140F900F900F900F9000
:100F800081E029CF1F920F920FB60F9211240BB65A
:100F90000F922F933F934F935F936F937F938F9312
:100FA0009F93AF93BF93EF93FF93CF93DF931F92E2
:100FB000CDB7DEB7209136012983809192159091AB
:100FC00093150097E9F4E0919015F0919115822F17
:100FD000309721F50F90DF91CF91FF91EF91BF9165
:100FE000AF919F918F917F916F915F914F913F91C1
:100FF0002F910F900BBE0F900FBE0F901F90189562
:10100000BE016F5F7F4F0E94300389818A3011F7E4
:10101000E0919015F09191153097E1F21995DACFA2
:101020001F920F920FB60F9211240BB60F922F93AF
:101030003F934F935F936F937F938F939F93AF9360
:10104000BF93EF93FF93CF93DF931F92CDB7DEB79C
:101050002091D600298380918E1590918F1500974D
:10106000E9F4E0918C15F0918D15822F309721F5E0
:101070000F90DF91CF91FF91EF91BF91AF919F9131
:101080008F917F916F915F914F913F912F910F9031
:101090000BBE0F900FBE0F901F901895BE016F5F93
:1010A0007F4F0E94300389818A3011F7E0918C15BF
:1010B000F0918D153097E1F21995DACF1F920F92CA
:1010C0000FB60F9211240BB60F922F933F934F93AD
:1010D0005F936F937F938F939F93AF93BF93EF93A0
:1010E000FF93CF93DF931F92CDB7DEB72091CE0051
:1010F000298380918A1590918B150097E9F4E091EE
:101100008815F0918915822F309721F50F90DF9186
:10111000CF91FF91EF91BF91AF919F918F917F916F
:101120006F915F914F913F912F910F900BBE0F9058
:101130000FBE0F901F901895BE016F5F7F4F0E94EA
:10114000300389818A3011F7E0918815F091891573
:101150003097E1F21995DACF1F920F920FB60F92E6
:1011600011240BB60F922F933F934F935F936F937E
:101170007F938F939F93AF93BF93EF93FF93CF93FF
:10118000DF931F92CDB7DEB72091C60029838091EF
:101190008615909187150097E9F4E0918415F091F8
:1011A0008515822F309731F50F90DF91CF91FF9108
:1011B000EF91BF91AF919F918F917F916F915F91CF
:1011C0004F913F912F910F900BBE0F900FBE0F903C
:1011D0001F901895BE016F5F7F4F0E943003898179
:1011E0008D3011F08A3001F7E0918415F09185156A
:1011F0003097D1F21995D8CF1F920F920FB60F9258
:1012000011240BB60F921F932F933F934F935F932D
:101210006F937F938F939F93AF93BF93CF93DF93FE
:10122000EF93FF93C7EDD4E111E0E881F9813097A6
:1012300089F08E81882371F08C819D8101969D8338
:101240008C832A813B818217930720F01D821C82A8
:10125000812F199527961F5F163039F7FF91EF916F
:10126000DF91CF91BF91AF919F918F917F916F91BE
:101270005F914F913F912F911F910F900BBE0F9057
:101280000FBE0F901F9018951F920F920FB60F92DE
:1012900011248F9381E08093D5148F910F900FBE0E
:1012A0000F901F9018951F920F920FB60F92112456
:1012B0000BB60F922F933F934F935F936F937F9350
:1012C0008F939F93AF93BF93EF93FF93E091D114CC
:1012D000F091D2141995FF91EF91BF91AF919F9129
:1012E0008F917F916F915F914F913F912F910F90CF
:1012F0000BBE0F900FBE0F901F9018951F920F926C
:101300000FB60F9211240BB60F922F933F934F936A
:101310005F936F937F938F939F93AF93BF93EF935D
:10132000FF93A5984091CC14E091CB14442309F489
:1013300042C08E2F0E2E000C990B23E030E0241BB0
:10134000310982179307B9F58A589D4FDC01EC915A
:101350000E2E000CFF0BEF54FD4F808180688095AE
:101360000E94C3029091CB1481E001C0880F9A952E
:10137000EAF70E94C302A59A8091CB14082E000CB4
:10138000990B019664E070E00E94BD158093CB1428
:10139000FF91EF91BF91AF919F918F917F916F914D
:1013A0005F914F913F912F910F900BBE0F900FBE09
:1013B0000F901F9018950E2E000CFF0BEA58FD4F52
:1013C000E0810E2E000CFF0BEF54FD4F8081C7CF44
:1013D000CF92DF92EF92FF92CF93DF93EB010F9AC0
:1013E0009C0150E040E060E271EA87E090E00E94FA
:1013F000D11569017A019E01A8EEB3E00E949A1509
:101400009601220F331F50E040E00E946D15E90164
:101410001092B0001092B10089EEC81683E0D80691
:1014200090F120E830E085E08093B100C701B6017B
:1014300044E0660F771F881F991F4A95D1F750E047
:1014400040E00E946D1590E080E0179A1092B20083
:101450004091B20042171306D8F317981092B200C9
:101460004091B20042171306D8F301968C179D07DE
:1014700060F31092B1000F98DF91CF91FF90EF9041
:10148000DF90CF90089520E430E084E0CDCFAC0130
:10149000CB01019780369A4EE0F58091D6148530C5
:1014A00014F08DEF089581110DC094B5926094BD34
:1014B00089EF87BD90916E00926090936E0095B514
:1014C000936095BDE7EDF4E130E020E081E0820F2C
:1014D000A081B181AB2BB1F497E0929FF001939F73
:1014E000F00D1124E952FB4E5183408373836283D4
:1014F0001582148291E096839091D6149F5F909309
:10150000D61408952F5F3F4F379625303105F1F6F9
:10151000C8CF8EEF0895CF92DF92EF92FF921F9384
:10152000CF93DF931F92CDB7DEB76C0110E0862F0B
:101530008150990B7C01BE016F5F7F4F80918615B2
:10154000909187150E94FB02212F30E0F601E20FF7
:10155000F31F882331F089818A3019F02E153F0559
:101560006CF010821092FA14812F0F90DF91CF91BE
:101570001F91FF90EF90DF90CF9008951F5F8083C1
:10158000DACF8091FA14811102C080E00CC065E0CE
:101590008CE992E10E948B0A8823B9F381E0909153
:1015A0009C12913791F78170089561E070E08FE0AF
:1015B00093E00E948A03892B31F082E193E00E943C
:1015C000C81780E008950E94DC0461E070E08DE2BD
:1015D00093E00E948A03892B19F089E393E0EFCF0F
:1015E00081E00895FC0101900020E9F79F0121505E
:1015F0003109281B390B2739310510F40C948A0363
:101600003F932F938AE593E09F938F930E94B417A3
:101610000F900F900F900F9081E090E008951F932E
:10162000CF93DF93EC01162F8091FA14811101C042
:10163000FFCF612FCE010E948B0A8823A9F36BECA8
:1016400072E0CE010E944C17C80FD91F1882DF919B
:10165000CF911F9108951F93CF93DF93EB01142F28
:101660009F938F9389E993E09F938F930E94B41780
:101670000F900F900F900F90612FCE01DF91CF91BF
:101680001F910C940F0BEF92FF920F931F93CF9328
:10169000DF93CDB7DEB7C05AD1090FB6F894DEBFDD
:1016A0000FBECDBFF82EE92E162F072F62E270E095
:1016B000812F902F0E943117892B99F08CE993E0AC
:1016C0000E94C81780E0C056DF4F0FB6F894DEBF07
:1016D0000FBECDBFDF91CF911F910F91FF90EF9083
:1016E00008950F931F93EF92FF9283ED93E09F93E2
:1016F0008F931F9280EA8F938E010F5F1F4F1F936E
:101700000F930E9407181F930F938EEE93E09F9301
:101710008F930E94B41765E070E0C8010E94F20A3E
:101720000FB6F894DEBF0FBECDBF892B19F08BEF3B
:1017300093E0C6CF81E0C7CFCF93DF93CDB7DEB7BD
:10174000C754D1400FB6F894DEBF0FBECDBF84B1F1
:10175000806F84B985B1806F85B980B3817F80BB8C
:1017600081B38E6081BB9D9A8091010180628093DC
:1017700001018091010180618093010180918100CC
:101780008860809381008FEC97E09093890080932C
:10179000880080916F00826080936F00809181004B
:1017A00082608093810081E1809379028093780246
:1017B00080937702809376021092200188E08093D4
:1017C000210184ED90E39093290180932801809179
:1017D000730082608093730080910A018068809317
:1017E0000A0187E090E00E94CD0090E080E00E9436
:1017F000CD00529880916900806180936900EA9AD7
:1018000080EF92E09093D2148093D1141092D5007F
:1018100040E14093D40032E03093D00028E120939F
:10182000D10096E09093D2006CED71E070938D152D
:1018300060938C158091D10080688093D100809155
:1018400090008260809390008091910088618093E5
:10185000910080919000806A8093900060E47CE920
:10186000709397006093960068EB7BE070939B0009
:1018700060939A0070939900609398008DB188618D
:101880008DB91092C5004093C4003093C0002093DE
:10189000C1009093C2000091861510918715011523
:1018A000110561F0F801808191810E949416C801B0
:1018B0000E94941610928715109286158BE090E086
:1018C0000E94F8158C01892B31F410928715109223
:1018D00086152C98FFCF80E290E00E94F815F80161
:1018E00091838083892B21F4C8010E949416EDCF47
:1018F00080E290E09383828381E090E0958384830B
:10190000178216821186108612861093871500930F
:10191000861586EF91E090938515809384158091CC
:10192000C10080688093C10081EA92E124EE31E039
:101930003093AA122093A9122AE633E03093AC1216
:101940002093AB1223E02093A4121092AE121092B7
:10195000AD129093A4158093A3159093A615809330
:10196000A5159093A8158093A71578948BE695E01C
:101970000E94C8177A99ABC541E7242E47E0342E60
:10198000EE24EA9453E0F52E6AEB462E6DE0562ED7
:1019900077E4672E7DE0772E8DE895E00E94C817EA
:1019A0008BEB95E00E94C8178FEC95E00E94C8175A
:1019B0008AEE95E00E94C81787EF95E00E94C8174D
:1019C00084E196E00E94C8178FE196E00E94C81754
:1019D0008AE296E00E94C81786E396E00E94C81744
:1019E00083E696E00E94C81783E896E00E94C81735
:1019F0008BE996E00E94C81786EB96E00E94C81714
:101A00008DED96E00E94C81786E097E00E94C81707
:101A10008CE297E00E94C8172FE0B22E30E5C32E6B
:101A200037E0D32E8E010F5F1F4F1F92BF92DF92C0
:101A3000CF920E94B41760E1C8010E940F0B4AE0E8
:101A400050E0BE0169537F4FC8010E94E7130F9019
:101A50000F900F900F902981222399F0C953DF4FE7
:101A6000E881F981C75CD0400E171F0751F0208133
:101A7000211107C09B0121503109FB012F30310595
:101A800060F01F92BF923F922F920E94B4170F9066
:101A90000F900F900F90F0E0E0E0CF0101970F97CB
:101AA00020F6E250EE30A8F4F0E08827E55AF24F35
:101AB0008F4F0C94F015A80DC40D0A0EC00ED90E50
:101AC000300F460F940FC00F1E1044107910EA100B
:101AD000561289EA97E00E94C81782ED97E00E94AB
:101AE000C8176AEF70E080E392E00E94470A809393
:101AF000D014799921C02F987A9922C02E987B9979
:101B000023C02D98FFEF23EC39E0F1502040304006
:101B1000E1F700C000000E94C10A882351F381E070
:101B20000E94510282E00E94510283E00E94510211
:101B300084E00E94510230CF81E00E945102DCCF4C
:101B400082E00E945102DBCF83E00E945102DACF93
:101B500081E08093441482E198E00E94C81787E3F3
:101B600098E00E94C8174FEF83EC99E04150804005
:101B70009040E1F700C000000E94C10A882399F359
:101B80001092441481E0D5CF85E698E00E94C817F2
:101B90008FE998E00E94C81782E4C82E84E1D82E0D
:101BA00003ED18E09924939494ECA92E98E0B92EB3
:101BB000DF92CF921F930F930E94F3170F900F9015
:101BC0000F900F90019749F086ED98E09F938F93C7
:101BD0000E94F3170F900F90DFCE9092CC1480915B
:101BE0004214909143149C0129513C4F273F3A42A3
:101BF00010F40E948102809143148F9380914214CB
:101C00008F93BF92AF920E94B4170F900F900F90D6
:101C10000F90CECF8AED98E00E94C81744E66EED93
:101C200073E182E299E00E942B0B44E66AE773E1DC
:101C300084E399E00E942B0B0E94D50A882309F4C3
:101C4000ABCE6AE773E18EED93E10E94E204892B4B
:101C500029F08AE499E00E94C8179ECE87E699E0B1
:101C60000E94C81744E66EED73E189E899E00E948E
:101C70002B0B1092161326E133E148EE52E067E198
:101C800070E08EED93E10E942104009769F09F932C
:101C90008F938AEA99E09F938F930E94B4170F90D5
:101CA0000F900F900F9078CE85ED99E00E94C817A5
:101CB00060E270E080E992E00E948404B6E1CB2EFD
:101CC000B3E1DB2E1CE0A12E1AE0B12E0AE2802E39
:101CD0000AE0902E80911513882371F0DF92CF9245
:101CE000BF92AF920E94B417109216131092151360
:101CF0000F900F900F900F908091FA148823B1F1FC
:101D000064E68AE793E10E948B0A882379F16BEC01
:101D100072E08AE793E10E944C1786589C4EFC01C2
:101D2000108280917A13813759F480917B1381114D
:101D300007C065E070E08EE19AE00E948A032CCE35
:101D40000AE713E11F930F939F928F920E94B4179B
:101D5000F80101900020E9F7BF016B577341C801FA
:101D60000E9484040F900F900F900F90FFEF23ECD0
:101D700039E0F15020403040E1F700C00000AACF28
:101D800089E39AE00E94C8178091A3159091A41549
:101D90000E941E158C018F3F980709F4FDCD6091BC
:101DA000A5157091A6150E9484170A30110561F7D8
:101DB000F3CD8CE69AE00E94C81781E99AE00E9470
:101DC000C81764E670E085E893E00E94470A082E91
:101DD000000C990B909314138093131317E001E0F8
:101DE00097FF0EC080ED9AE00E94C8178FEF97EA28
:101DF000E1E681509040E040E1F700C00000CCCD2A
:101E00007A991EC0809113139FEF980F953078F444
:101E1000082E000C990B0197189FF001199FF00DE7
:101E20001124E952FB4E86818823B1F01682FFEF20
:101E300025EA3EE0F15020403040E1F700C00000CC
:101E40000E94C10A8823E1F282E00E94510280913F
:101E500013130E94FA01A0CD068315821482E7CFE6
:101E600085EE9AE00E94C8177A990BC00E94250659
:101E70004FEF83EC99E0415080409040E1F700C083
:101E800000000E94C10A882379F386CD8AE29BE094
:101E90000E94C8178FE49BE00E94C817A9E8CA2EC9
:101EA000ABE0DA2E9801AE0149535F4FBE016B5B88
:101EB0007E4FCE018A5B9E4F0E947D05892B79F56E
:101EC000CB5BDE4F8881C554D1401F928F93CA5B94
:101ED000DE4F8881C654D1401F928F9389811F9213
:101EE0008F93C953DF4F8881C75CD0401F928F9377
:101EF000DF92CF920E94B4170FB6F894DEBF0FBEE8
:101F0000CDBFFFEF27EA31E6F15020403040E1F746
:101F100000C000000E94C10A882321F23DCD83EB5E
:101F20009BE00E94C817EDCF85ED9BE00E94C8178B
:101F300085E09CE00E94C81709E61CE00E9423058A
:101F40008F3F980791F485E39CE00E94C8178FEFBC
:101F500097EAE1E681509040E040E1F700C00000E0
:101F60000E94C10A882351F317CD9F938F931F932B
:101F70000F930E94B4170F900F900F900F90E7CF20
:101F80008AE79CE00E94C81780919100826080934C
:101F9000910073EDC72E78E0D72EE5E19E2EF4EE8A
:101FA000AF2EFCE0BF2E1F930F93DF92CF920E94C3
:101FB000F3170F900F900F900F90019731F08091D1
:101FC0009100887F80939100FFCD89819A81865A04
:101FD0009F4F853B910528F08CEA9CE00E94C81732
:101FE000E2CF989E9001999E300D1124245B3B4FC7
:101FF000309399002093980089819AE5980F953B3A
:1020000080F4082E000C990B865A9F4F989E9001E1
:10201000999E300D1124245B3B4F30939B002093FD
:102020009A008A818F9389818F93BF92AF920E9489
:10203000B4170F900F900F900F90B5CF8EEF9CE0DC
:102040000E94C8170E941A028F3F980791F48AE2F3
:102050009DE00E94C8172FEF37EA41E6215030403B
:102060004040E1F700C000000E94C10A882351F3FC
:1020700093CC9F938F937F926F920E94B4170F908F
:102080000F900F900F90E7CF81E69DE00E94C81758
:1020900080919515811112C085E99DE00E94C817B5
:1020A0004FEF87EA91E6415080409040E1F700C051
:1020B00000000E94C10A882359F36ECC90E080E0B2
:1020C0000E94FE008115E4E09E0778F49701281B2A
:1020D000390BC9019F938F935F924F920E94B4175F
:1020E0000F900F900F900F90DBCF8F3F980791F7D5
:1020F000D3CF8CED9DE00E94C81764EF71E088E8B3
:1021000091E00E94E80964EF71E088E891E00E94A4
:10211000E80964EF71E088E891E00E94E8096EE563
:1021200071E087E391E00E94E80966E970E082EDE2
:1021300091E00E94E80964EF71E088E891E00E9474
:10214000E8096EE571E087E391E00E94E80966E93D
:1021500070E082ED91E00E94E80968EE73E088E8A3
:1021600091E00E94E80964EF71E08BE492E00E9444
:10217000E80964EF71E08BE492E00E94E80964EF03
:1021800071E08BE492E00E94E8096EE571E08EE672
:1021900092E00E94E80966E970E082ED91E00E9419
:1021A000E80964EF71E082E791E00E94E8096EE5DA
:1021B00071E087E391E00E94E80966E970E082ED52
:1021C00091E00E94E80968EE73E088E891E00E94DF
:1021D000E809E2CB88E19EE00E94C81780EB94E01A
:1021E0009F938F9382E29EE09F938F930E94B417F8
:1021F00047E0842E8F925BE5952E9F9281E39EE0CF
:102200009F938F930E94B41782E49EE09F938F93D5
:1022100083E59EE09F938F930E94B4178EE59EE026
:102220000E94C81744E66FEA72E18FE99EE00E94BF
:102230002B0B6FEAC62E62E1D62E0FB6F894DEBFE6
:102240000FBECDBF8091AF12811103C08AED9EE019
:1022500002CD8F929F92DF92CF9283EF9EE09F9369
:102260008F930E94B41782E09FE00E94C817DF920C
:10227000CF9285E19FE09F938F930E94B4170E94B5
:10228000D50A0FB6F894DEBF0FBECDBF882309F480
:1022900083CB67EA74E080EB94E00E94E204892B30
:1022A00019F086EB94E0D7CC84E39FE00E94C81736
:1022B00084E095E09F938F9384E49FE09F938F93B6
:1022C0001F9230EA3F931F930F930E9407181F93AA
:1022D0000F933EEEA32E33E0B32EBF92AF920E9437
:1022E000B41765E070E0C8010E94F20A0FB6F894D6
:1022F000DEBF0FBECDBF892B19F089E69FE0ABCCC6
:102300008F929F92DF92CF9284E89FE09F938F936A
:102310001F92F0EAFF931F930F930E9407181F93D9
:102320000F93BF92AF920E94B4176FE070E0C801A4
:102330000E94F20A0FB6F894DEBF0FBECDBF892B04
:1023400039F08CE99FE00E94C8178BEB9FE083CCAB
:102350008EEF9FE00E94C8178EE090E10E94C817A0
:1023600044E66EED73E18DE390E10E942B0B8091CA
:10237000DE13823309F086C0C95BDE4F1882C75472
:10238000D140CA5BDE4F1882C654D140CB5BDE4FD2
:102390001882C554D140C953DF4F1882C75CD04062
:1023A0009E0129533F4FAE014B5B5E4FBE016A5BFE
:1023B0007E4FCE01895B9E4F0E947D05892B19F0CF
:1023C00086E490E148CC0E941A02B82EA92E809192
:1023D0009515CC24CA94DC2C882361F090E080E031
:1023E0000E94FE006C018115944020F4C7018C19F5
:1023F0009D096C010E94230529B122FB222720F9A7
:102400001F922F939F938F93DF92CF92AF92BF92A1
:10241000CA5BDE4F8881C654D1401F928F93C95B3F
:10242000DE4F8881C754D1401F928F93C953DF4F2D
:102430008881C75CD0401F928F93CB5BDE4F888131
:10244000C554D1401F928F9389E590E19F938F935C
:102450001F9280E68F931F930F930E9407181F937C
:102460000F9381E990E19F938F930E94B417B80175
:1024700080E092E00E94430B0FB6F894DEBF0FBEDF
:10248000CDBF8ACA40E5B80181EA90E10E942B0BDA
:102490008981811105C06EEB70E1C8010E9445176A
:1024A000B80182E49EE00E94430B76CA8BED90E176
:1024B0000E94C81761E070E08FE093E00E948A03F9
:1024C0000E94DC0465E070E080E091E136CC0E947F
:1024D000320697E0292E91E1392E9E012F5F3F4F62
:1024E00079015E0137ECA30EB11C27EC34E148EC16
:1024F00054E169EC74E18AEC94E10E947D050E944C
:102500001A02882E792E80919515882309F4FBC034
:1025100090E080E00E94FE006C018115944028F458
:102520008FEF93E08C199D096C010E942305682EA2
:10253000592E99B092FA992490F8412C4F929F927B
:102540009F938F93DF92CF927F928F928091C91445
:102550001F928F938091CA141F928F938091C714FA
:102560001F928F938091C8141F928F933F922F9246
:102570000E94B4172091C8148091C71490E0EAE03B
:102580002E9F800D911D11240E9481028091C31401
:102590000FB6F894DEBF0FBECDBF8823D9F11092DD
:1025A000C31480914514803309F0C7C000914614CC
:1025B00060914814601760F50250F70120E4119211
:1025C0002A95E9F7061B003408F00FE310E06C5F72
:1025D00070E06B5B7B4EA801C7010E941D17F701DD
:1025E000E00FF11F1082FF92EF928FE291E19F9333
:1025F0008F930E94B41761E471E1C7010E943C17F8
:102600000F900F900F900F90892B09F080C02F989A
:10261000109245148091C614882309F4C8C04F92C3
:102620009F925F926F92DF92CF927F928F92809172
:10263000C9141F928F938091CA141F928F93809117
:10264000C7141F928F938091C8141F928F9324E612
:1026500032E03F932F9389EC91E19F938F931F92E8
:102660008EE78F93BF92AF920E940718F5010190F9
:102670000020E9F7AF01415051094A195B091BE0FD
:10268000140F0FB6F894DEBF0FBECDBF173C08F491
:1026900066C08AE192E10E94C81781E692E10E9439
:1026A000C81765E070E08EE19AE00E948A033FEF70
:1026B00043ED80E3315040408040E1F700C000002E
:1026C0000E9432068091C4149091C5140396909391
:1026D000C5148093C4148D9760F080EC89831A82AE
:1026E00062E070E0C7010E9484041092C514109249
:1026F000C4142FEF3BE742E9215030404040E1F75E
:1027000000C00000F2CECC24CA94DC2C0ECF68E4CA
:1027100071E1C7010E943C17892B21F481E00E94DE
:10272000510276CF60E571E1C7010E943C17892B09
:1027300009F06ECF0E9425066BCF803229F485E523
:1027400091E10E94C81764CF803919F487E891E1BC
:10275000F8CF803D09F05CCF86EB91E1F2CF80E3CA
:10276000898389E0840F8A831B8287E08C83E4E479
:10277000F2E1DE01159601900D928A95E1F7552759
:10278000B501CE010C960E941D17112309F481CFCB
:10279000612F70E0C7010E948404892B09F492CF55
:1027A0008CE492E10E94C8171092C61476CF81E89B
:1027B00092E10E94C8179FEFE3EDF0E39150E040F3
:1027C000F040E1F700C000000E94320692CF3F9235
:1027D0004F925F926F927F928F929F92AF92BF9231
:1027E000CF92DF92EF92FF920F931F93CF93DF93DD
:1027F0005C016B017A016115710519F0FB01918390
:102800008083E114F10451F0C7010297839730F0FF
:1028100040E030E020E090E06BC05E01E5012196F1
:10282000F5011081812F90E00E941515892BA9F7E1
:102830001D3201F52196F501118101E0E114F10449
:1028400009F4E6C0F0E1EF16F10409F088C0103396
:1028500059F488818F7D883509F07CC019812296D2
:102860000260F0E1EF2EF12C812C912CA12C88E05C
:10287000B82E92C01B3221F4E5012296F501118198
:1028800000E0DCCFEAE0EE16F10409F4C7C0F0E1A5
:10289000EF16F10409F073C0E7CF78E0E72EF12CD2
:1028A000812C912CA12C60E1B62E76C021E0ADC028
:1028B000302F3170C114D10431F0222371F12197EE
:1028C000F601D183C08327FF2EC060E070E080E076
:1028D00090E8311104C06FEF7FEF8FEF9FE722E2A6
:1028E00030E03093AA152093A915462F372F282FB3
:1028F000642F732F822FDF91CF911F910F91FF9043
:10290000EF90DF90CF90BF90AF909F908F907F908F
:102910006F905F904F903F90089501FF04C0229701
:10292000F601D183C083332341F090958095709553
:1029300061957F4F8F4F9F4FD8CF97FFD6CF82E2C1
:1029400090E09093AA158093A9156FEF7FEF8FEF1A
:102950009FE7CBCF10E3E114F10409F49ECF28E008
:10296000E216F10409F49CCF0CF08CCF812C912C51
:10297000A12CE0E4BE2E82E0E816F10469F060E0EC
:1029800070E080E090E897010F2C000C440B550B91
:102990000E946D1549015A0120E060E070E0CB0112
:1029A00027010F2C000C66087708FE0150ED352E2C
:1029B000310E39E0331570F43FEB310F49EC342E12
:1029C0003A3138F03FE9310F3A3108F071CF39EA46
:1029D000332E310E3E141F040CF06ACF27FD15C0B4
:1029E00086169706A806B90678F0A30192010E9400
:1029F0005D15630D711D811D911D6130710581058E
:102A000020E8920708F452CF2FEF21961081CDCF06
:102A1000103309F41ECF2AE0E22EF12C9CEC892E13
:102A2000982CA82C9CE0B92EB7CF91110C945A1574
:102A3000803219F089508550C8F70895CF93DF93FD
:102A4000EC012B8120FF1AC026FF0CC02F7B2B83AB
:102A50008E819F8101969F838E838A8190E0DF9192
:102A6000CF91089522FF18C0E881F9818081082E56
:102A7000000C990B009729F420622B838FEF9FEFB6
:102A8000EECF3196F983E8832E813F812F5F3F4F50
:102A90003F832E839927E3CFEA85FB85199597FF1E
:102AA000F3CF2B81019621F080E2822B8B83E6CF3E
:102AB00080E1FBCF992788270895DB018F939F93AF
:102AC0000E948F15BF91AF91A29F800D911DA39F72
:102AD000900DB29F900D11240895A1E21A2EAA1B09
:102AE000BB1BFD010DC0AA1FBB1FEE1FFF1FA217BE
:102AF000B307E407F50720F0A21BB30BE40BF50BBB
:102B0000661F771F881F991F1A9469F76095709543
:102B1000809590959B01AC01BD01CF0108950E9465
:102B20009A15A59F900DB49F900DA49F800D911DA7
:102B300011240895A29FB001B39FC001A39F700DFF
:102B4000811D1124911DB29F700D811D1124911DB5
:102B50000895AA1BBB1B51E107C0AA1FBB1FA617E4
:102B6000B70710F0A61BB70B881F991F5A95A9F736
:102B700080959095BC01CD01089597FB072E16F422
:102B8000009407D077FD09D00E94A91507FC05D055
:102B90003EF4909581959F4F0895709561957F4F74
:102BA0000895052E97FB1EF400940E94E81557FD2A
:102BB00007D00E946D1507FC03D04EF40C94E81565
:102BC00050954095309521953F4F4F4F5F4F089559
:102BD00090958095709561957F4F8F4F9F4F089589
:102BE000EE0FFF1F881F8BBF0790F691E02D199401
:102BF0000F931F93CF93DF938230910510F482E0FF
:102C000090E0E091AD15F091AE1530E020E0B0E03D
:102C1000A0E0309799F42115310509F44AC0281B2A
:102C2000390B24303105D8F58A819B8161157105F6
:102C300089F1FB0193838283FE0111C040815181A0
:102C40000281138148175907E0F04817590799F492
:102C5000109761F012960C93129713961C9332966C
:102C6000CF01DF91CF911F910F9108950093AD1582
:102C70001093AE15F4CF2115310551F042175307CB
:102C800038F0A901DB019A01BD01DF01F801C1CFD4
:102C9000EF01F9CF9093AE158093AD15CDCFFE0126
:102CA000E20FF31F819391932250310939832883D6
:102CB000D7CF2091AB153091AC15232B41F4209147
:102CC0008C0230918D023093AC152093AB1520917E
:102CD0008A0230918B022115310541F42DB73EB7A0
:102CE00040918E0250918F02241B350BE091AB1561
:102CF000F091AC15E217F307A0F42E1B3F0B281739
:102D0000390778F0AC014E5F5F4F2417350748F064
:102D10004E0F5F1F5093AC154093AB158193919369
:102D20009FCFF0E0E0E09CCFCF93DF930097E9F0F6
:102D3000FC01329713821282A091AD15B091AE15AD
:102D4000ED0130E020E01097A1F420813181820F65
:102D5000931F2091AB153091AC152817390709F056
:102D600061C0F093AC15E093AB15DF91CF9108955E
:102D7000EA01CE17DF07E8F54A815B819E01411524
:102D80005105B1F7E901FB83EA8349915991C40FD9
:102D9000D51FEC17FD0761F4808191810296840FA5
:102DA000951FE90199838883828193819B838A831C
:102DB000F0E0E0E012968D919C9113970097B9F5A1
:102DC0002D913C911197CD010296820F931F209176
:102DD000AB153091AC152817390739F6309751F5F6
:102DE0001092AE151092AD15B093AC15A093AB1523
:102DF000BCCFD383C28340815181840F951FC817F4
:102E0000D90761F44E5F5F4F88819981480F591F40
:102E1000518340838A819B8193838283211531056D
:102E200009F0B0CFF093AE15E093AD159ECFFD0144
:102E3000DC01C0CF13821282D7CFFB01DC0102C0BC
:102E400001900D9241505040D8F70895FB01DC01EC
:102E50000D900020E9F7119701900D920020E1F705
:102E60000895FC018191861721F08823D9F79927CD
:102E700008953197CF010895FB01DC018D910190F8
:102E800080190110D9F3990B0895FB01DC01019021
:102E90000D920020E1F70895DC015D91552331F09A
:102EA000FB01019005160110E1F7B9F780959095A7
:102EB0008A0F9B1F0895FB01DC014150504048F0F0
:102EC00001900D920020C9F701C01D924150504061
:102ED000E0F70895FB0151915523A9F0BF01DC01F2
:102EE0004D9145174111E1F759F4CD0101900020B2
:102EF00049F04D9140154111C9F3FB014111EFCF4C
:102F000081E090E0019708950F931F93CF93DF9393
:102F1000182F092FEB018B8181FD09C01FEF0FEFE7
:102F2000812F902FDF91CF911F910F91089582FFF4
:102F300014C02E813F818C819D81281739073CF474
:102F4000E881F981CF0101969983888310838E816E
:102F50009F8101969F838E83E3CFE885F985812F3A
:102F60001995892BA1F3DACFCF93DF93CDB7DEB7D5
:102F7000AE014A5F5F4FFA0161917191AF0180919B
:102F8000A5159091A6150E947418DF91CF91089510
:102F90000F931F93CF93DF93E091A515F091A615A2
:102FA0002381EC0110E000E021FD08C00FEF1FEFCE
:102FB00014C01995892B11F00FEF1FEF89916091C3
:102FC000A5157091A615DB011896ED91FC91811164
:102FD000F0CF8AE01995892B49F7C801DF91CF918D
:102FE0001F910F910895CF93DF93CDB7DEB7AE0158
:102FF0004A5F5F4FFA0161917191AF018091A31512
:103000009091A4150E94201CDF91CF9108950F93F9
:103010001F93CF93DF93CDB7DEB72E970FB6F894FB
:10302000DEBF0FBECDBF0E891F89888D998D26E02A
:103030002C831A83098397FF02C080E090E80197F0
:103040009E838D83AE01445E5F4F6A8D7B8DCE0182
:1030500001960E9474184D815E8157FD0AC02F8130
:103060003885421753070CF49A01020F131FF80119
:1030700010822E960FB6F894DEBF0FBECDBFDF9143
:10308000CF911F910F9108950F931F93CF93DF93CB
:10309000CDB7DEB72E970FB6F894DEBF0FBECDBF0B
:1030A0000E891F8986E08C831A8309838FEF9FE73F
:1030B0009E838D83AE01465E5F4F688D798DCE0114
:1030C00001960E9474182F813885020F131FF80192
:1030D00010822E960FB6F894DEBF0FBECDBFDF91E3
:1030E000CF911F910F9108952F923F924F925F922F
:1030F0006F927F928F929F92AF92BF92CF92DF9208
:10310000EF92FF920F931F93CF93DF9300D000D0E5
:1031100000D01F921F92CDB7DEB77C013B018A0120
:10312000FC0117821682838181FFDDC1CE010196E9
:103130005C01F7019381F30193FD859193FF8191E8
:103140003F01882309F453C1853239F493FD8591F9
:1031500093FF81913F01853229F4B70190E00E94ED
:103160008417E7CF912C212C312CFFE1F31538F097
:103170008B3211F190F4803209F1833229F137FC5E
:103180003CC020ED280F2A3050F536FE20C08AE0E2
:10319000989E200D1124922E06C08D3291F080331E
:1031A00071F7689430F8F30193FD859193FF819155
:1031B0003F018111DACF21C0689431F8689432F868
:1031C000F2CF689433F8EFCF689434F8ECCFEAE0AC
:1031D0002E9E200D1124222E689435F8E4CF8E32D5
:1031E00029F436FC04C1689436F8DDCF8C3619F426
:1031F000689437F8D8CF8836B1F2982F9F7D9554D0
:103200009330E0F08336A1F18337C1F1833509F0C3
:1032100063C02801F2E04F0E511CF801C080D1803C
:10322000692D70E036FC02C06FEF7FEFC6010E948F
:10323000441D4C01689437F882010AC00C5F1F4F8F
:10324000FFE3F98388248394912C6501E89437F88F
:1032500033FE2DC0522C8114910471F5552009F4D0
:1032600068CFB70180E290E00E9484175A94F6CFAD
:10327000F801808189830E5F1F4FE4CF2801F2E0BF
:103280004F0E511CF801C080D180692D70E036FCD2
:1032900002C06FEF7FEFC6010E944F1D4C018201FB
:1032A000D5CFB70180E290E00E9484172A942814B9
:1032B000190409F0B0F7CECFF60137FC859137FE3F
:1032C00081916F01B70190E00E94841751105A94C8
:1032D000F1E08F1A9108BFCF843619F0893609F0D2
:1032E00077C0F80137FE6BC0608171818281938164
:1032F0000C5F1F4FF32DFF763F2E97FF09C090956F
:103300008095709561957F4F8F4F9F4F689437F8E8
:103310002AE030E0A5010E94721DC82ECA188C2C2C
:10332000432C36FE0CC0E89440F8C91440F434FE37
:1033300005C032FC03C0F32DFE7E4F2E892C44FEC7
:10334000AAC0FE01EC0DF11D8081803309F09CC004
:10335000242D297E422E842D8870582E43FCAAC02D
:1033600040FEA4C09C2C821418F42C0C922C9818AB
:1033700044FEA6C0B70180E390E00E94841742FE9D
:1033800009C088E790E041FE02C088E590E0B701FF
:103390000E948417C91408F49FC0CA94D12C9FEFCF
:1033A000C91AD90ACA0CDB1CF60182916F01B70158
:1033B00090E00E948417AC14BD04B1F74FCF608138
:1033C0007181072E000C880B990B0E5F1F4F92CF57
:1033D000D32CE894D4F82AE030E08537E1F1232DAE
:1033E000297FD22E8F36A9F1F0F4883551F1F701FB
:1033F000868197812B960FB6F894DEBF0FBECDBFA6
:10340000DF91CF911F910F91FF90EF90DF90CF90C0
:10341000BF90AF909F908F907F906F905F904F90F4
:103420003F902F900895803749F0883701F7D4FEF8
:1034300002C06894D2F820E130E00DC06894D4F85E
:10344000F6CF34FE03C0822F8660D82E20E132E012
:1034500002C028E030E0F801D7FE0FC06081718122
:10346000828193810C5F1F4FA5010E94721DC82E9F
:10347000CA183D2CE89437F852CF6081718190E0F2
:1034800080E00E5F1F4FF0CF42FC02C0839463CFF9
:103490008394839460CF842D867809F45CCFF6CF33
:1034A000B70180E290E00E94841783948214C0F3F5
:1034B000512C5ECF522C5818821408F459CFF8CFF3
:1034C000842D867809F466CF8BE241FE80E247FCCA
:1034D0008DE2B70190E05CCFB70180E390E00E94FD
:1034E00084179A9457CF8FEF9FEF84CF20FD09C0A8
:1034F000FC0123FD05C022FF02C073836283518358
:103500004083089544FD17C046FD1DC0DB01FC014A
:10351000AA0FBB1FEE1FFF1F1094D1F76A0F7B1F6E
:103520008E1F9F1F660F771F881F991F620F711DC7
:10353000811D911D089533E0660F771F881F991F25
:103540003150D1F7F3CF34E0F7CF0F931F93CF93E0
:10355000DF938C01C8010E941E15EC0197FD08C085
:103560000E941515892BB1F7B801CE010E945A1D92
:10357000CE01DF91CF911F910F9108958F929F926D
:10358000AF92BF92EF92FF920F931F93CF93DF936F
:103590008C01D62F7A01B22E0E941E159C01332772
:1035A0002B32310529F02D323105A9F46894B7F892
:1035B000D15061F480E0DF91CF911F910F91FF9086
:1035C000EF90BF90AF909F908F900895C8010E9498
:1035D0001E1597FDEFCFCB2DCD7F2B2D2073F9F44A
:1035E0008033E9F4AA24AA94AD0E89F0C8010E94A0
:1035F0001E1597FD0CC0282F2F7D283561F4C2645D
:10360000D25029F0C8010E941E1597FF08C0812CD6
:10361000912C54011BC0B6FE2BC0C260DA2D812C48
:10362000912C540120ED280F283028F1C4FD09C049
:103630002A3008F1C6FF05C02F7D3FEE320F36302D
:10364000C8F0B8010E945A1DC1FFB4CFC7FF08C01F
:10365000B094A09490948094811C911CA11CB11CE6
:103660002C2FB501A401C7010E94761A81E0A3CFD7
:10367000C261D4CF27504C2FC501B4010E94821AD9
:103680004B015C01C260D15009F3C8010E941E15B4
:1036900097FFC8CFD9CF7F928F929F92AF92BF9260
:1036A000CF92DF92EF92FF920F931F93CF93DF930E
:1036B000CDB7DEB7A0970FB6F894DEBF0FBECDBF73
:1036C0005C01962E7A01CE0101966C0180E2F60132
:1036D00011928A95E9F7F501B381890130E020E084
:1036E000712C812CA0E041E050E0F801B3FD859100
:1036F000B3FF8191982F8F01811117C010E000E076
:10370000C801A0960FB6F894DEBF0FBECDBFDF9103
:10371000CF911F910F91FF90EF90DF90CF90BF90CE
:10372000AF909F908F907F9008958E3519F421155A
:10373000310541F1A21713064CF48D3549F18D3254
:1037400029F4811006C0882483941DC0882009F4C0
:1037500064C0E92FE695E695E695EC0DFD2DF11D8B
:10376000892F8770BA0101C0660F8A95EAF78081B8
:10377000682B6083791651F0971510F49F5FE9CF9D
:103780009150E7CFA1E02F5F3F4FAFCF812CFBCF10
:10379000882019F08E8180628E83AA2359F0F60169
:1037A0009E012F5D3F4F8081809580833196E21787
:1037B000F307C9F788248394C5010E941E1597FD5D
:1037C00016C0E82FE695E695E695EC0DFD2DF11D6A
:1037D000208130E0AC014770552702C03595279510
:1037E0004A95E2F720FD06C0B5010E945A1D8820C7
:1037F00069F084CFE114F10429F0F7018083C70157
:1038000001967C019A94812C9110D6CFE114F10499
:1038100009F476CFF701108273CFE82FE695E6958D
:10382000E695EC0DFD2DF11D982F9770BA0101C0A2
:10383000660F9A95EAF79081692B6083782EA3CF63
:103840005F926F927F928F929F92AF92BF92CF9230
:10385000DF92EF92FF920F931F93CF93DF936C0150
:10386000EB015A01FC0117821682512CF601E3800C
:10387000FE01E3FC8591E3FE8191182FEF0188237F
:10388000E9F090E00E941515892B21F0C6010E94F5
:10389000A51AECCF153241F4FE01E3FC1591E3FECD
:1038A0001191EF01153269F4C6010E941E1597FDB2
:1038B0008EC01817D9F2B6010E945A1D852D90E0CE
:1038C0008AC000E01A3231F4E3FC1591E3FE119155
:1038D000EF0101E0F12C20ED210F2A3048F101FF2A
:1038E00037C0FF2059F31836B1F11C3609F43DC03A
:1038F000112321F3612F70E088E491E00E94391DCB
:10390000892BE1F2912C812C00FD06C0F50180800D
:103910009180C50102965C011E3679F5F60146815B
:10392000578170E060E0202FC4010E94761A9ECF7C
:1039300002606F2D70E090E080E040E20E94821A09
:10394000F62EFE01E3FC1591E3FE1191EF01C3CFCA
:10395000FF24FA94C8CFFE01E3FC1591E3FE119118
:10396000EF01183609F0C4CF08600460FE01E3FCE3
:103970001591E3FE1191EF01BBCF1336C1F401FDA8
:1039800002C0FF24F394C6010E941E1597FD1FC0BC
:103990008114910429F0F4018083C40101964C0143
:1039A000FA94F110F0CF00FD61CF53945FCF1B3537
:1039B00011F59E01A4016F2DC6010E944B1BEC0165
:1039C000892B89F7F6018381807309F477CF8FEF14
:1039D0009FEF511073CFDF91CF911F910F91FF9007
:1039E000EF90DF90CF90BF90AF909F908F907F909F
:1039F0006F905F900895C6010E94A51A97FDE7CFCA
:103A00001F36A9F130F4143641F0193639F000644C
:103A100005C01337B9F01537D1F70062202FA40184
:103A20006F2DC6010E94BE1A8111BDCFCBCF81146C
:103A3000910429F0F4016082C40101964C01FA94CA
:103A4000FF2071F0C6010E941E153C0197FD08C0C1
:103A50000E941515892B59F3B601C3010E945A1D06
:103A60008114910409F49FCFF40110829CCF00616E
:103A7000D5CFFC010590061621F00020D9F7C00132
:103A800008953197CF010895FC0105906150704071
:103A90000110D8F7809590958E0F9F1F0895FC0117
:103AA0006150704001900110D8F7809590958E0F6D
:103AB0009F1F0895FB01238120FF11C026FD0FC029
:103AC0008F3F980771F082832F7D206423832681A6
:103AD00037812150310937832683992708958FEF45
:103AE0009FEF0895FA01AA27283051F1203181F182
:103AF000E8946F936E7F6E5F7F4F8F4F9F4FAF4FF6
:103B0000B1E03ED0B4E03CD0670F781F891F9A1F08
:103B1000A11D680F791F8A1F911DA11D6A0F711DBC
:103B2000811D911DA11D20D009F468943F912AE0C8
:103B3000269F11243019305D3193DEF6CF010895B0
:103B4000462F4770405D4193B3E00FD0C9F7F6CFE1
:103B5000462F4F70405D4A3318F0495D31FD4052A9
:103B6000419302D0A9F7EACFB4E0A695979587953F
:103B700077956795BA95C9F700976105710508951E
:103B80009B01AC010A2E06945795479537952795CA
:103B9000BA95C9F7620F731F841F951FA01D089562
:043BA000F894FFCFC7
:103BA400696F742F6D6567612F73656E736F7273C0
:103BB4000000000000000000000000000000000001
:103BC40000000000000000000000000000000000F1
:103BD40000000000000000000000000000000000E1
:103BE40000000000000000000000000000000000D1
:103BF40000000000000000000000000000000000C1
:103C04000000000030303A30303A30303A30303A48
:103C140030303A3030000303030301000100010097
:103C2400010001000100010001000000AF15800047
:103C340057656C636F6D652066726F6D20534550D8
:103C44003420496F54206861726477617265210A77
:103C5400003F065B4F666D7D077F6F777C395E7929
:103C64007140002B4950442C004F4B0D0A004F4B20
:103C7400004552524F52004641494C0041542B4397
:103C8400495053544152543D22544350222C220053
:103C9400222C0041542B43495053454E443D00418E
:103CA4005445300041542B43574A41503D22004172
:103CB400540045535038323636206973206E6F7481
:103CC40020726573706F6E64696E672E0041542BA9
:103CD40043574D4F44453D31004661696C6564204E
:103CE400746F207365742057694669207374617416
:103CF400696F6E206D6F64652E004D5154542063BE
:103D04006F6D6D616E6420746F6F206C6F6E6720D1
:103D1400282575206368617273292E2053686F7299
:103D240074656E20746F706963206F7220636C69B0
:103D3400656E742049442E0A002573005061796C25
:103D44006F616420636F6E7461696E7320646F7554
:103D5400626C652071756F7465732E2055736520D0
:103D6400706C61696E2074657874206F722043539F
:103D7400562E0041542B4D5154545055423D302C35
:103D8400222573222C222573222C302C30005365DB
:103D94006E64696E673A2025730A004D51545420AD
:103DA4007075626C697368206661696C65642E0065
:103DB4005374617274696E6720576946692E2E2E9A
:103DC40000455350206E6F7420726573706F6E647B
:103DD400696E672E0041542B43494653520D0A0025
:103DE4005354414D41432C22004465766963652058
:103DF4004D41433A2025730A004D414320726561C9
:103E040064206661696C65642C207573696E672033
:103E140064656661756C742E0041542B43494653A6
:103E2400520053746174696F6E206D6F646520660F
:103E340061696C65642E004A6F696E696E6720570C
:103E44006946692E2E2E007238397575696F7300B4
:103E54005269636B790057694669206A6F696E20FD
:103E64006661696C65642E0031302E32372E34372A
:103E74002E3839004F70656E696E672054435020A8
:103E8400746F2025733A25642E2E2E0A0054435055
:103E940020636F6E6E656374696F6E206661696C12
:103EA40065642E006D656761323536305F636C6919
:103EB400656E740053656E64696E67204D51545489
:103EC40020434F4E4E4543542E2E2E00696F742FBF
:103ED4006D6567612F636F6D6D616E64730053650B
:103EE4006E64696E67204D515454205355425343B8
:103EF4005249424520746F2025732E2E2E0A004D00
:103F04005154542072656164792E00534550342015
:103F1400496F54204861726477617265202D205284
:103F24006177204D515454204D6F646500092D2D47
:103F34002D2D2D2D2D2D2D2D2D2D2D2D2D2D2D20BA
:103F44004D2045204E2055202D2D2D2D2D2D2D2D50
:103F54002D2D2D2D2D2D2D2D2D2D000920312E20F3
:103F6400427574746F6E20616E64204C4544000980
:103F740020322E205049522053656E736F722028D0
:103F840048432D535235303129000920332E204423
:103F94006973706C6179000920342E205769466971
:103FA4002028455350383236362054435020746507
:103FB400737429000920352E20737464696F000915
:103FC40020362E2054696D6572000920372E204258
:103FD400757A7A6572000920382E2054656D7065F3
:103FE40072617475726520616E642068756D6964B0
:103FF4006974792073656E736F7220284448543154
:104004003129000920392E2050726F78696D697446
:10401400792073656E736F72202848432D53523094
:104024003429000931302E20536572766F206D6F6C
:10403400746F7220285347393029000931312E20FA
:104044004C696768742073656E736F7220284B59CE
:104054002D30313829000931322E20536F696C20FC
:104064004D6F6973747572652053656E736F72203A
:104074002863617061636974697665290009313365
:104084002E20506C617920537461722057617273D1
:10409400207468656D65206F6E2074686520737088
:1040A40065616B6572000931342E205075626C694C
:1040B40073682061206D65737361676520746F2078
:1040C4004D5154542062726F6B6572000931352E64
:1040D40020436865636B204553503832363620667A
:1040E40069726D776172652076657273696F6E00AF
:1040F40043686F6F7365206120647269766572200E
:10410400746F20746573742028312D2564293A2036
:1041140000496E76616C696420696E7075742E2036
:10412400506C6561736520656E7465722061206EE4
:10413400756D626572206265747765656E203120E5
:10414400616E642025642E0A00427574746F6E20BB
:10415400616E64204C4544206472697665722E2039
:10416400547970652027712720746F2065786974ED
:104174002E004C454420342077696C6C20626C69B5
:104184006E6B2E2050757368206120627574746F95
:104194006E20746F206C69676874206F6E65206F81
:1041A4006620746865206F74686572204C4544739A
:1041B4002E005049522073656E736F7220647269C9
:1041C4007665722E20547970652027712720746FCC
:1041D40020657869742E004C454420312073686F43
:1041E400756C64207475726E206F6E207768656ECE
:1041F400206D6F74696F6E206973206465746563E4
:104204007465642E00446973706C6179206472690A
:104214007665722E20547970652027712720746F7B
:104224002065786974207769746820726573657491
:104234002F6D656E7520726573746172742E0054EF
:104244007970652061206E756D6265722062657497
:104254007765656E202D39393920616E64203939CE
:1042640039393A00596F752077726F74653A202591
:10427400640A00256400252A73005769466920549E
:1042840043502064656D6F2E2054797065207661EB
:104294006C75657320616E642074686520626F615B
:1042A40072642077696C6C2073656E642074686531
:1042B4006D20746F2054435020706F727420323319
:1042C4002E00456E74657220576946692053534920
:1042D400443A2000456E746572205769466920701F
:1042E400617373776F72643A20004661696C656428
:1042F40020746F206A6F696E2057694669206E6565
:1043040074776F726B2E0053756363657373667590
:104314006C6C79206A6F696E656420576946692000
:104324006E6574776F726B2E00456E7465722049EA
:10433400502061646472657373206F662054435027
:10434400207365727665723A20004661696C656413
:1043540020746F2063726561746520544350206338
:104364006F6E6E656374696F6E2E204572726F7224
:104374003D25640A005375636365737366756C6CDD
:104384007920637265617465642054435020636FBF
:104394006E6E656374696F6E2E2054797065202784
:1043A400712720746F2073746F702E005443502053
:1043B40072656365697665643A2025730A00415421
:1043C4002B434950434C4F534500596F7520777226
:1043D4006F74653A2025730A00737464696F2064EE
:1043E40072697665722E2054797065206120746537
:1043F400787420746F206563686F20746F2074680C
:1044040065207465726D696E616C2E0054696D650A
:1044140072206472697665722064656D6F2E205413
:104424007970652027712720746F20657869742E50
:10443400004C454420322077696C6C20746F6767A8
:104444006C65206576657279203130306D732E206D
:10445400507265737320627574746F6E20322074A9
:104464006F2070617573652F726573756D652E00AD
:1044740054696D6572206372656174652066616953
:104484006C65642E0042757A7A657220647269766E
:1044940065722064656D6F2E20507265737320629F
:1044A4007574746F6E203220746F20686561722099
:1044B4006120626565702E2054797065202771270C
:1044C40020746F20657869742E004448543131207B
:1044D4006472697665722064656D6F2E20547970FC
:1044E400652027712720746F20657869742E005425
:1044F400656D706572617475726520616E642068A3
:10450400756D69646974792077696C6C20626520C3
:104514007072696E746564206576657279203220E4
:104524007365636F6E64732E0054656D706572619C
:10453400747572653A2025752E257520432C204804
:10454400756D69646974793A2025752E2575202561
:10455400250A004661696C656420746F2072656188
:10456400642044485431312073656E736F72206443
:104574006174612E0050726F78696D69747920736B
:10458400656E736F72206472697665722064656DFE
:104594006F2E20547970652027712720746F206551
:1045A4007869742E0044697374616E636520696E62
:1045B400206D6D2077696C6C206265207072696E65
:1045C4007465642065766572792032207365636F43
:1045D4006E64732E0050726F78696D6974792074FB
:1045E400696D656F75742E204E6F206F626A656306
:1045F400742064657465637465642077697468699C
:104604006E2072616E67652E0044697374616E6317
:10461400653A202575206D6D0A00536572766F200A
:104624006D6F746F72206472697665722064656D53
:104634006F2E20456E74657220616E676C6520284C
:104644002D393020746F203930292E00496E76615F
:104654006C696420616E676C652E20506C656173B3
:104664006520656E74657220612076616C756520C5
:104674006265747765656E202D393020616E642023
:1046840039302E00536572766F2073657420746F11
:1046940020256420646567726565732E0A004C6981
:1046A4006768742073656E736F72206472697665CF
:1046B400722064656D6F2E205479706520277127F0
:1046C40020746F20657869742E004661696C656496
:1046D40020746F2072656164206C6967687420734C
:1046E400656E736F722E004C69676874206C657612
:1046F400656C3A2025752028302D31303233290A53
:1047040000536F696C206D6F6973747572652073E3
:10471400656E736F72206472697665722064656D6C
:104724006F2E20547970652027712720746F2065BF
:104734007869742E004661696C656420746F207218
:1047440065616420736F696C206D6F697374757231
:10475400652073656E736F722E00536F696C206DE4
:104764006F697374757265206C6576656C3A202583
:10477400752028302D31303233290A00506C61798C
:10478400696E672053746172205761727320746874
:10479400656D65206F6E2074686520737065616B4C
:1047A40065722E20526573657420746F20696E746F
:1047B4006572727570742E004D5154542064656D89
:1047C4006F005769466920535349443A2025730AB8
:1047D4000042726F6B657220706F72743A20257597
:1047E4000A00696F742F6D6567612F73656E736F4F
:1047F400727300546F7069633A2025730A0041751F
:1048040074683A20616E6F6E796D6F7573202865D8
:104814006E7375726520616C6C6F775F616E6F6E1D
:10482400796D6F7573207472756520696E206D6F74
:104834007371756974746F2E636F6E66290A00450F
:104844006E7465722062726F6B6572204950202805
:10485400796F7572206C6170746F702773204C418E
:104864004E2049502C20652E672E203139322E31AE
:1048740036382E782E78293A20004E6F2049502061
:10488400656E74657265642E2041626F7274696E20
:10489400672E0042726F6B65723A2025733A257554
:1048A4000A00546F207375627363726962652C2009
:1048B40072756E3A0020206D6F7371756974746F30
:1048C4005F737562202D68202573202D74202723A3
:1048D400270A0A005769466920636F6E6E65637420
:1048E40065642E0041542B4D515454555345524345
:1048F40046473D302C312C222573222C22222C2297
:10490400222C302C302C2222004D51545420636C24
:1049140069656E7420636F6E666967206661696C91
:1049240065642E0041542B4D515454434F4E4E3D1B
:10493400302C222573222C25752C30004D515454D3
:104944002062726F6B657220636F6E6E656374694B
:104954006F6E206661696C65642E00436865636BE5
:104964003A2062726F6B657220495020636F7272D5
:104974006563743F206D6F7371756974746F207211
:10498400756E6E696E673F20616C6C6F775F616EE8
:104994006F6E796D6F757320747275653F004D513C
:1049A400545420636F6E6E65637465642100312016
:1049B4003D2073656E6420637573746F6D20746538
:1049C40078742C2032203D2073656E642073656EEC
:1049D400736F7220736E617073686F740043686FD5
:1049E4006F73653A20004448543131207265616424
:1049F400206661696C65642E0074656D703D257573
:104A04002E25752C68756D3D25752E25752C6C69C4
:104A14006768743D25752C736F696C3D25752C642E
:104A24006973743D25752C6D6F74696F6E3D2575C2
:104A3400005075626C697368696E673A2025730A61
:104A4400004D65737361676520286E6F20646F7510
:104A5400626C652071756F746573293A200048652E
:104A64006C6C6F2066726F6D2041726475696E6F35
:104A7400204D656761203235363000436865636BCD
:104A8400696E672045535038323636206669726D38
:104A9400776172652076657273696F6E2E2E2E00B3
:104AA40041542B474D5200543A25752E2575432009
:104AB400483A25752E25752525204C3A2575205311
:104AC4003A257520443A2575204D3A25750A004348
:104AD4004D442072656365697665643A2025730ADE
:104AE400006C65645F6F6E006C65645F6F66660082
:104AF4006265657000436F6E6E656374696F6E20E6
:104B04007265636569766564202862726F6B65728D
:104B140020616363657074656420636F6E6E6563A2
:104B240074696F6E292E00537562736372696265CE
:104B34007220636F6E6E6374696F6E207265636555
:104B4400697665642028737562736372696265644B
:104B5400204F4B292E0050494E4752455350207246
:104B6400656365697665642E007B226D6163223A14
:104B7400222573222C2274656D70223A25752E2508
:104B8400752C2268756D223A25752E25752C226C9C
:104B940069676874223A25752C22736F696C223A0E
:104BA40025752C2264697374223A25752C226D6F45
:104BB40074696F6E223A25757D005055424C4953F5
:104BC40048206275696C64206661696C656420289C
:104BD4007061796C6F616420746F6F206C6F6E67A5
:104BE4003F292E0061726475696E6F005443502032
:104BF4007472616E736D6974206661696C65642E8C
:104C0400005075626C697368206661696C65642E16
:104C1400205265636F6E6E656374696E672E2E2E07
:104C2400004D515454206F66666C696E652E205297
:0C4C340065747279696E672E2E2E0000E8
:00000001FF
